{
  "contractName": "MyContract",
  "abi": [
    {
      "inputs": [],
      "name": "admin",
      "outputs": [
        {
          "internalType": "address payable",
          "name": "",
          "type": "address"
        }
      ],
      "stateMutability": "view",
      "type": "function",
      "constant": true
    },
    {
      "inputs": [],
      "name": "balanceWei",
      "outputs": [
        {
          "internalType": "uint256",
          "name": "",
          "type": "uint256"
        }
      ],
      "stateMutability": "view",
      "type": "function",
      "constant": true
    },
    {
      "inputs": [
        {
          "internalType": "uint256",
          "name": "",
          "type": "uint256"
        }
      ],
      "name": "tiketBookers",
      "outputs": [
        {
          "internalType": "address",
          "name": "",
          "type": "address"
        }
      ],
      "stateMutability": "view",
      "type": "function",
      "constant": true
    },
    {
      "inputs": [
        {
          "internalType": "uint256",
          "name": "",
          "type": "uint256"
        }
      ],
      "name": "tikets",
      "outputs": [
        {
          "internalType": "address",
          "name": "",
          "type": "address"
        }
      ],
      "stateMutability": "view",
      "type": "function",
      "constant": true
    },
    {
      "inputs": [
        {
          "internalType": "uint256",
          "name": "",
          "type": "uint256"
        }
      ],
      "name": "tiketsBookedTime",
      "outputs": [
        {
          "internalType": "uint256",
          "name": "",
          "type": "uint256"
        }
      ],
      "stateMutability": "view",
      "type": "function",
      "constant": true
    },
    {
      "inputs": [],
      "name": "withdrawBalance",
      "outputs": [],
      "stateMutability": "nonpayable",
      "type": "function"
    },
    {
      "inputs": [],
      "name": "getBalance",
      "outputs": [
        {
          "internalType": "uint256",
          "name": "",
          "type": "uint256"
        }
      ],
      "stateMutability": "view",
      "type": "function",
      "constant": true
    },
    {
      "inputs": [],
      "name": "getBalanceWei",
      "outputs": [
        {
          "internalType": "uint256",
          "name": "",
          "type": "uint256"
        }
      ],
      "stateMutability": "view",
      "type": "function",
      "constant": true
    },
    {
      "inputs": [
        {
          "internalType": "address",
          "name": "newAdmin",
          "type": "address"
        }
      ],
      "name": "changeAdmin",
      "outputs": [
        {
          "internalType": "bool",
          "name": "",
          "type": "bool"
        }
      ],
      "stateMutability": "payable",
      "type": "function",
      "payable": true
    },
    {
      "inputs": [
        {
          "internalType": "uint256",
          "name": "tiketIndex",
          "type": "uint256"
        }
      ],
      "name": "buyTiket",
      "outputs": [
        {
          "internalType": "bool",
          "name": "",
          "type": "bool"
        }
      ],
      "stateMutability": "payable",
      "type": "function",
      "payable": true
    },
    {
      "inputs": [],
      "name": "getTikets",
      "outputs": [
        {
          "internalType": "address[16]",
          "name": "",
          "type": "address[16]"
        }
      ],
      "stateMutability": "view",
      "type": "function",
      "constant": true
    },
    {
      "inputs": [
        {
          "internalType": "uint256",
          "name": "ticketId",
          "type": "uint256"
        },
        {
          "internalType": "address",
          "name": "newOwner",
          "type": "address"
        }
      ],
      "name": "changeTiketOwner",
      "outputs": [],
      "stateMutability": "nonpayable",
      "type": "function"
    },
    {
      "inputs": [
        {
          "internalType": "uint256",
          "name": "tiketIndex",
          "type": "uint256"
        }
      ],
      "name": "bookTiket",
      "outputs": [
        {
          "internalType": "bool",
          "name": "",
          "type": "bool"
        }
      ],
      "stateMutability": "nonpayable",
      "type": "function"
    }
  ],
  "bytecode": "0x608060405260006010557350d3b84a2b1787b7704dd50c67733b6b5b293629601160006101000a81548173ffffffffffffffffffffffffffffffffffffffff021916908373ffffffffffffffffffffffffffffffffffffffff16021790555034801561006a57600080fd5b506111f48061007a6000396000f3fe6080604052600436106100c25760003560e01c80638aeeae491161007f578063b48a3d4d11610059578063b48a3d4d14610288578063be4fb14d146102b1578063f520047a146102dc578063f851a44014610307576100c2565b80638aeeae49146101fd5780638f2839701461022d5780638f6274441461025d576100c2565b806312065fe0146100c757806342ac3854146100f25780634d63e2061461012f5780635eaa425b1461016c5780635fd8c710146101a957806374d2ea1a146101c0575b600080fd5b3480156100d357600080fd5b506100dc610332565b6040516100e99190610bc6565b60405180910390f35b3480156100fe57600080fd5b5061011960048036038101906101149190610c12565b610351565b6040516101269190610c5a565b60405180910390f35b34801561013b57600080fd5b5061015660048036038101906101519190610c12565b610527565b6040516101639190610cb6565b60405180910390f35b34801561017857600080fd5b50610193600480360381019061018e9190610c12565b61055d565b6040516101a09190610bc6565b60405180910390f35b3480156101b557600080fd5b506101be610578565b005b3480156101cc57600080fd5b506101e760048036038101906101e29190610c12565b61067d565b6040516101f49190610cb6565b60405180910390f35b61021760048036038101906102129190610c12565b6106b3565b6040516102249190610c5a565b60405180910390f35b61024760048036038101906102429190610cfd565b6108ab565b6040516102549190610c5a565b60405180910390f35b34801561026957600080fd5b50610272610987565b60405161027f9190610dd5565b60405180910390f35b34801561029457600080fd5b506102af60048036038101906102aa9190610df1565b610a08565b005b3480156102bd57600080fd5b506102c6610b54565b6040516102d39190610bc6565b60405180910390f35b3480156102e857600080fd5b506102f1610b5a565b6040516102fe9190610bc6565b60405180910390f35b34801561031357600080fd5b5061031c610b64565b6040516103299190610e52565b60405180910390f35b60003073ffffffffffffffffffffffffffffffffffffffff1631905090565b60008082101580156103645750600f8211155b6103a3576040517f08c379a000000000000000000000000000000000000000000000000000000000815260040161039a90610eca565b60405180910390fd5b600073ffffffffffffffffffffffffffffffffffffffff16600083601081106103cf576103ce610eea565b5b0160009054906101000a900473ffffffffffffffffffffffffffffffffffffffff1673ffffffffffffffffffffffffffffffffffffffff1614610447576040517f08c379a000000000000000000000000000000000000000000000000000000000815260040161043e90610f65565b60405180910390fd5b60004290508060786022856010811061046357610462610eea565b5b015461046f9190610fb4565b106104af576040517f08c379a00000000000000000000000000000000000000000000000000000000081526004016104a690611034565b60405180910390fd5b33601284601081106104c4576104c3610eea565b5b0160006101000a81548173ffffffffffffffffffffffffffffffffffffffff021916908373ffffffffffffffffffffffffffffffffffffffff160217905550806022846010811061051857610517610eea565b5b01819055506001915050919050565b6000816010811061053757600080fd5b016000915054906101000a900473ffffffffffffffffffffffffffffffffffffffff1681565b6022816010811061056d57600080fd5b016000915090505481565b601160009054906101000a900473ffffffffffffffffffffffffffffffffffffffff1673ffffffffffffffffffffffffffffffffffffffff163373ffffffffffffffffffffffffffffffffffffffff1614610608576040517f08c379a00000000000000000000000000000000000000000000000000000000081526004016105ff906110a0565b60405180910390fd5b601160009054906101000a900473ffffffffffffffffffffffffffffffffffffffff1673ffffffffffffffffffffffffffffffffffffffff166108fc6010549081150290604051600060405180830381858888f19350505050158015610672573d6000803e3d6000fd5b506000601081905550565b6012816010811061068d57600080fd5b016000915054906101000a900473ffffffffffffffffffffffffffffffffffffffff1681565b60008082101580156106c65750600f8211155b6106cf57600080fd5b600073ffffffffffffffffffffffffffffffffffffffff16600083601081106106fb576106fa610eea565b5b0160009054906101000a900473ffffffffffffffffffffffffffffffffffffffff1673ffffffffffffffffffffffffffffffffffffffff1614610773576040517f08c379a000000000000000000000000000000000000000000000000000000000815260040161076a90610f65565b60405180910390fd5b662386f26fc1000034116107bc576040517f08c379a00000000000000000000000000000000000000000000000000000000081526004016107b39061110c565b60405180910390fd5b34601060008282546107ce9190610fb4565b92505081905550600060019050600073ffffffffffffffffffffffffffffffffffffffff166000846010811061080757610806610eea565b5b0160009054906101000a900473ffffffffffffffffffffffffffffffffffffffff1673ffffffffffffffffffffffffffffffffffffffff160361089d57336000846010811061085957610858610eea565b5b0160006101000a81548173ffffffffffffffffffffffffffffffffffffffff021916908373ffffffffffffffffffffffffffffffffffffffff1602179055506108a2565b600090505b80915050919050565b6000601160009054906101000a900473ffffffffffffffffffffffffffffffffffffffff1673ffffffffffffffffffffffffffffffffffffffff163373ffffffffffffffffffffffffffffffffffffffff161461093d576040517f08c379a0000000000000000000000000000000000000000000000000000000008152600401610934906110a0565b60405180910390fd5b81601160006101000a81548173ffffffffffffffffffffffffffffffffffffffff021916908373ffffffffffffffffffffffffffffffffffffffff16021790555060019050919050565b61098f610b8a565b60006010806020026040519081016040528092919082601080156109fe576020028201915b8160009054906101000a900473ffffffffffffffffffffffffffffffffffffffff1673ffffffffffffffffffffffffffffffffffffffff16815260200190600101908083116109b4575b5050505050905090565b60008210158015610a1a5750600f8211155b610a59576040517f08c379a0000000000000000000000000000000000000000000000000000000008152600401610a5090610eca565b60405180910390fd5b60008260108110610a6d57610a6c610eea565b5b0160009054906101000a900473ffffffffffffffffffffffffffffffffffffffff1673ffffffffffffffffffffffffffffffffffffffff163373ffffffffffffffffffffffffffffffffffffffff1614610afc576040517f08c379a0000000000000000000000000000000000000000000000000000000008152600401610af39061119e565b60405180910390fd5b8060008360108110610b1157610b10610eea565b5b0160006101000a81548173ffffffffffffffffffffffffffffffffffffffff021916908373ffffffffffffffffffffffffffffffffffffffff1602179055505050565b60105481565b6000601054905090565b601160009054906101000a900473ffffffffffffffffffffffffffffffffffffffff1681565b604051806102000160405280601090602082028036833780820191505090505090565b6000819050919050565b610bc081610bad565b82525050565b6000602082019050610bdb6000830184610bb7565b92915050565b600080fd5b610bef81610bad565b8114610bfa57600080fd5b50565b600081359050610c0c81610be6565b92915050565b600060208284031215610c2857610c27610be1565b5b6000610c3684828501610bfd565b91505092915050565b60008115159050919050565b610c5481610c3f565b82525050565b6000602082019050610c6f6000830184610c4b565b92915050565b600073ffffffffffffffffffffffffffffffffffffffff82169050919050565b6000610ca082610c75565b9050919050565b610cb081610c95565b82525050565b6000602082019050610ccb6000830184610ca7565b92915050565b610cda81610c95565b8114610ce557600080fd5b50565b600081359050610cf781610cd1565b92915050565b600060208284031215610d1357610d12610be1565b5b6000610d2184828501610ce8565b91505092915050565b600060109050919050565b600081905092915050565b6000819050919050565b610d5381610c95565b82525050565b6000610d658383610d4a565b60208301905092915050565b6000602082019050919050565b610d8781610d2a565b610d918184610d35565b9250610d9c82610d40565b8060005b83811015610dcd578151610db48782610d59565b9650610dbf83610d71565b925050600181019050610da0565b505050505050565b600061020082019050610deb6000830184610d7e565b92915050565b60008060408385031215610e0857610e07610be1565b5b6000610e1685828601610bfd565b9250506020610e2785828601610ce8565b9150509250929050565b6000610e3c82610c75565b9050919050565b610e4c81610e31565b82525050565b6000602082019050610e676000830184610e43565b92915050565b600082825260208201905092915050565b7f456c207469636b6574206e6f2065786973746500000000000000000000000000600082015250565b6000610eb4601383610e6d565b9150610ebf82610e7e565b602082019050919050565b60006020820190508181036000830152610ee381610ea7565b9050919050565b7f4e487b7100000000000000000000000000000000000000000000000000000000600052603260045260246000fd5b7f45737465207469636b6574207961206861207369646f20636f6d707261646f00600082015250565b6000610f4f601f83610e6d565b9150610f5a82610f19565b602082019050919050565b60006020820190508181036000830152610f7e81610f42565b9050919050565b7f4e487b7100000000000000000000000000000000000000000000000000000000600052601160045260246000fd5b6000610fbf82610bad565b9150610fca83610bad565b9250828201905080821115610fe257610fe1610f85565b5b92915050565b7f45737465207469636b6574207961206861207369646f2072657365727661646f600082015250565b600061101e602083610e6d565b915061102982610fe8565b602082019050919050565b6000602082019050818103600083015261104d81611011565b9050919050565b7f4e6f206572657320656c2061646d696e00000000000000000000000000000000600082015250565b600061108a601083610e6d565b915061109582611054565b602082019050919050565b600060208201905081810360008301526110b98161107d565b9050919050565b7f43616e746964616420696e737566696369656e746520646520424e4200000000600082015250565b60006110f6601c83610e6d565b9150611101826110c0565b602082019050919050565b60006020820190508181036000830152611125816110e9565b9050919050565b7f5475206e6f206572657320656c2070726f706965746172696f2064656c20746960008201527f636b657400000000000000000000000000000000000000000000000000000000602082015250565b6000611188602483610e6d565b91506111938261112c565b604082019050919050565b600060208201905081810360008301526111b78161117b565b905091905056fea264697066735822122037937f4b6ee0fecc7bddda5bc9e17375d28da929e21f1aca74a6754574e42ca764736f6c63430008110033",
  "immutableReferences": {},
  "source": "pragma solidity ^0.8.0;\r\n\r\ncontract MyContract {\r\n\r\n    address[16] public tikets;\r\n    uint public balanceWei = 0;\r\n\r\n    address payable public admin  = payable(0x50d3b84a2b1787b7704DD50c67733b6b5B293629);\r\n\r\n    address[16] public tiketBookers; \r\n    uint[16] public tiketsBookedTime; \r\n\r\n    function withdrawBalance () public {\r\n        require(msg.sender == admin, \"No eres el admin\");\r\n        \r\n        admin.transfer(balanceWei);\r\n        balanceWei = 0;\r\n    }\r\n\r\n    function getBalance() public view returns (uint256) {\r\n\r\n        return payable(address(this)).balance;\r\n    }\r\n\r\n    function getBalanceWei() public view returns (uint256) {\r\n\r\n        return balanceWei;\r\n    }\r\n\r\n    /**\r\n    \r\n        Funcin para cambiar el administrador\r\n    \r\n     */\r\n    function changeAdmin(address newAdmin) public payable returns (bool) {\r\n        require(msg.sender == admin, \"No eres el admin\");\r\n        admin = payable(newAdmin);\r\n        \r\n        return true;\r\n    }\r\n\r\n    /**\r\n    \r\n        Funcin para comprar un ticket\r\n    \r\n     */\r\n    function buyTiket(uint tiketIndex) payable public returns (bool) {\r\n        \r\n        require(tiketIndex >= 0 && tiketIndex <= 15);\r\n\r\n        require(tikets[tiketIndex] == address(0), \"Este ticket ya ha sido comprado\");\r\n\r\n        require(msg.value > 0.01 ether, \"Cantidad insuficiente de BNB\");\r\n        balanceWei += msg.value;\r\n\r\n\r\n        bool sucess = true;\r\n        \r\n        if ( tikets[tiketIndex] == address(0) ){\r\n            \r\n            tikets[tiketIndex] = msg.sender;\r\n        } else {\r\n            sucess = false ;\r\n        }\r\n\r\n        return sucess;\r\n    }\r\n\r\n    /**\r\n    \r\n        Funcin para obtener los tickets\r\n    \r\n     */\r\n    function getTikets() public view returns (address[16] memory) {\r\n        return tikets;\r\n    }\r\n\r\n    /**\r\n    \r\n        Funcin para cambiar el propietario de un ticket\r\n    \r\n     */\r\n    function changeTiketOwner(uint ticketId, address newOwner) public {\r\n        require(ticketId >= 0 && ticketId <= 15, \"El ticket no existe\");\r\n\r\n        require(msg.sender == tikets[ticketId],\"Tu no eres el propietario del ticket\");\r\n\r\n        tikets[ticketId] = newOwner;\r\n    }\r\n\r\n    /**\r\n    \r\n        Funcin para reservar tickets\r\n    \r\n     */\r\n    function bookTiket(uint tiketIndex) public returns (bool) {\r\n    \r\n        require(tiketIndex >= 0 && tiketIndex <= 15, \"El ticket no existe\");\r\n\r\n        require(tikets[tiketIndex] == address(0), \"Este ticket ya ha sido comprado\");\r\n\r\n        uint currentTicketTime = block.timestamp;\r\n\r\n        require(tiketsBookedTime[tiketIndex] + 120 < currentTicketTime, \"Este ticket ya ha sido reservado\");\r\n        \r\n        tiketBookers[tiketIndex] = msg.sender;\r\n        tiketsBookedTime[tiketIndex] = currentTicketTime;\r\n\r\n        return true;\r\n    }\r\n\r\n}\r\n",
  "sourcePath": "C:\\Users\\Andrs Fernandez\\Desktop\\Parte 1 Blockchain\\bnb\\contracts\\MyContract.sol",
  "compiler": {
    "name": "solc",
    "version": "0.8.17+commit.8df45f5f.Emscripten.clang"
  },
  "schemaVersion": "3.4.11",
  "updatedAt": "2023-01-12T00:05:10.673Z",
  "networkType": "ethereum",
  "devdoc": {
    "kind": "dev",
    "methods": {},
    "version": 1
  },
  "userdoc": {
    "kind": "user",
    "methods": {
      "bookTiket(uint256)": {
        "notice": "Funcin para reservar tickets"
      },
      "buyTiket(uint256)": {
        "notice": "Funcin para comprar un ticket"
      },
      "changeAdmin(address)": {
        "notice": "Funcin para cambiar el administrador"
      },
      "changeTiketOwner(uint256,address)": {
        "notice": "Funcin para cambiar el propietario de un ticket"
      },
      "getTikets()": {
        "notice": "Funcin para obtener los tickets"
      }
    },
    "version": 1
  }
}